:020000040000FA
:1000000025EF00F00F0104009EAAFDD7AF50D88065
:1000100022EF00F00F0104009EA8FDD7AE6ED8803D
:1000200022EF00F00F010400A4AAFDD7AA50D88047
:1000300022EF00F00F010400A4A8FDD7A96ED8801C
:1000400022EF00F0000104001200330EB06E240E07
:10005000AD6E900EAC6E330EAB6E240EA86E900E8D
:100060009C6E730ED36EC26A0F0148694969000124
:1000700043EF00F0926A936A800E946EC3DF1A6EAB
:100080001A50C8DFF7D7010E926E936A946A9C8E5D
:100090000E01F66B050EC76F0001C4DF1A6E1A5011
:0400A000C9DFF1D7EC
:087FF800A6F718F9F3F8C0F137
:00000001FF
